:04000000FEEFFFF020
:020000040001F9
:10FF1A000001B5EFFFF0A3ECFFF0CFECFFF097EC98
:10FF2A00FFF01200620E3901D96F000EDB6F000E6E
:10FF3A00DD6F020EDF6F000EDE6F1200000E390158
:10FF4A00C06F000EC16F000EC26F000EC36F000EAD
:10FF5A00C46F000EC56F000EC66F000EC76F120089
:10FF6A0090ECFFF03F01CA91210E016E760EE82E49
:10FF7A00FED7012EFCD700D03F01CA81020E026EC5
:10FF8A00450E016EAA0EE82EFED7012EFCD7022ED0
:10FF9A00FAD7E8D7010E3F01BA6F000EBB6F000E09
:10FFAA00BC6FFE0EC26FC369C4693A0160695069C9
:10FFBA00FE0E406F000E816F000E516F000E416FF2
:10FFCA00000E616F000E5A6F000E5B6F000E6A6FB3
:10FFDA00000E6B6F000E426F000E526F000E626FC2
:10FFEA00436953696369446954696469080E846F93
:06FFFA0012008DEFFFF084
:020000040020DA
:10000000FF0FFF0FFF0FFF0FFF0FFF0FFF0FFF0F80
:020000040030CA
:0A000000ECFFF7FF9FFFFFFFFFFF7B
:00000001FF
